{
  "_format": "hh-sol-artifact-1",
  "contractName": "Wallet",
  "sourceName": "contracts/Wallet.sol",
  "abi": [
    {
      "anonymous": false,
      "inputs": [
        {
          "indexed": false,
          "internalType": "uint256",
          "name": "_transferNum",
          "type": "uint256"
        }
      ],
      "name": "TestLogExecuteTransferLayers",
      "type": "event"
    },
    {
      "inputs": [
        {
          "internalType": "address",
          "name": "_receiver",
          "type": "address"
        }
      ],
      "name": "test",
      "outputs": [],
      "stateMutability": "nonpayable",
      "type": "function"
    }
  ],
  "bytecode": "0x608060405234801561001057600080fd5b50610bcc806100206000396000f3fe608060405234801561001057600080fd5b506004361061002b5760003560e01c8063bb29998e14610030575b600080fd5b61004a60048036038101906100459190610777565b61004c565b005b61005860006064610085565b61006460646096610085565b610070609660c8610085565b60006103e8905061008182826102d2565b5050565b6000600160008054815260200190815260200160002090506000604051806040016040528085815260200184815250905080826000016000820151816000015560208201518160010155905050600060405180604001604052806040518060400160405280600381526020017f455448000000000000000000000000000000000000000000000000000000000081525081526020016040518060400160405280600481526020017f5553444300000000000000000000000000000000000000000000000000000000815250815250905060005b60028110156101ce576000828260028110610176576101756107a4565b5b6020020151905080856003016000848152602001908152602001600020908161019f9190610a23565b508460020160008154809291906101b590610b24565b91905055505080806101c690610b24565b915050610158565b5060005b60048110156102b35760008460050160008381526020019081526020016000206040518060800160405290816000820160009054906101000a900460ff161515151581526020016000820160019054906101000a900460ff161515151581526020016000820160029054906101000a900460ff161515151581526020016000820160039054906101000a900460ff1615151515815250509050600282036102855760018160000190151590811515815250505b84600401600081548092919061029a90610b24565b91905055505080806102ab90610b24565b9150506101d2565b506000808154809291906102c690610b24565b91905055505050505050565b6102da6102f6565b60006102e6838361061b565b90506102f1816106da565b505050565b60005b600054811015610618576000600160008381526020019081526020016000209050600060036000600454815260200190815260200160002060008481526020019081526020016000209050600060405180604001604052808460000160000154815260200184600001600101548152509050808260000160008201518160000155602082015181600101559050508260020154826002018190555060005b836002015481101561047c57600084600301600083815260200190815260200160002080546103c59061083c565b80601f01602080910402602001604051908101604052809291908181526020018280546103f19061083c565b801561043e5780601f106104135761010080835404028352916020019161043e565b820191906000526020600020905b81548152906001019060200180831161042157829003601f168201915b505050505090508084600301600084815260200190815260200160002090816104679190610a23565b5050808061047490610b24565b915050610397565b5060008360040154905060005b818110156105e85760008560050160008381526020019081526020016000206040518060800160405290816000820160009054906101000a900460ff161515151581526020016000820160019054906101000a900460ff161515151581526020016000820160029054906101000a900460ff161515151581526020016000820160039054906101000a900460ff16151515158152505090508085600501600084815260200190815260200160002060008201518160000160006101000a81548160ff02191690831515021790555060208201518160000160016101000a81548160ff02191690831515021790555060408201518160000160026101000a81548160ff02191690831515021790555060608201518160000160036101000a81548160ff0219169083151502179055509050508460040160008154809291906105cf90610b24565b91905055505080806105e090610b24565b915050610489565b50600260008154809291906105fc90610b24565b919050555050505050808061061090610b24565b9150506102f9565b50565b60008060056000600454815260200190815260200160002090506004548160000181905550838160010160006101000a81548173ffffffffffffffffffffffffffffffffffffffff021916908373ffffffffffffffffffffffffffffffffffffffff160217905550828160020181905550600454816003018190555060008160040160006101000a81548160ff021916908315150217905550600460008154809291906106c790610b24565b9190505550806000015491505092915050565b7fec45e4a8867b17356c147c2331cb9199b6f1f4a7589a26d3fec59e296aedb126816040516107099190610b7b565b60405180910390a150565b600080fd5b600073ffffffffffffffffffffffffffffffffffffffff82169050919050565b600061074482610719565b9050919050565b61075481610739565b811461075f57600080fd5b50565b6000813590506107718161074b565b92915050565b60006020828403121561078d5761078c610714565b5b600061079b84828501610762565b91505092915050565b7f4e487b7100000000000000000000000000000000000000000000000000000000600052603260045260246000fd5b600081519050919050565b7f4e487b7100000000000000000000000000000000000000000000000000000000600052604160045260246000fd5b7f4e487b7100000000000000000000000000000000000000000000000000000000600052602260045260246000fd5b6000600282049050600182168061085457607f821691505b6020821081036108675761086661080d565b5b50919050565b60008190508160005260206000209050919050565b60006020601f8301049050919050565b600082821b905092915050565b6000600883026108cf7fffffffffffffffffffffffffffffffffffffffffffffffffffffffffffffffff82610892565b6108d98683610892565b95508019841693508086168417925050509392505050565b6000819050919050565b6000819050919050565b600061092061091b610916846108f1565b6108fb565b6108f1565b9050919050565b6000819050919050565b61093a83610905565b61094e61094682610927565b84845461089f565b825550505050565b600090565b610963610956565b61096e818484610931565b505050565b5b818110156109925761098760008261095b565b600181019050610974565b5050565b601f8211156109d7576109a88161086d565b6109b184610882565b810160208510156109c0578190505b6109d46109cc85610882565b830182610973565b50505b505050565b600082821c905092915050565b60006109fa600019846008026109dc565b1980831691505092915050565b6000610a1383836109e9565b9150826002028217905092915050565b610a2c826107d3565b67ffffffffffffffff811115610a4557610a446107de565b5b610a4f825461083c565b610a5a828285610996565b600060209050601f831160018114610a8d5760008415610a7b578287015190505b610a858582610a07565b865550610aed565b601f198416610a9b8661086d565b60005b82811015610ac357848901518255600182019150602085019450602081019050610a9e565b86831015610ae05784890151610adc601f8916826109e9565b8355505b6001600288020188555050505b505050505050565b7f4e487b7100000000000000000000000000000000000000000000000000000000600052601160045260246000fd5b6000610b2f826108f1565b91507fffffffffffffffffffffffffffffffffffffffffffffffffffffffffffffffff8203610b6157610b60610af5565b5b600182019050919050565b610b75816108f1565b82525050565b6000602082019050610b906000830184610b6c565b9291505056fea2646970667358221220b2f9bafbb66dc6ef887ea22d06994d325d18d571c01f25d804e5540de80a372564736f6c63430008110033",
  "linkReferences": {},
  "deployedLinkReferences": {}
}